:020000040800F2
:100000000000012045610008956100089561000825
:1000100095610008956100089561000800000000E6
:1000200000000000000000000000000095610008D2
:10003000956100080000000095610008EB4C000885
:1000400095610008956100089561000895610008B8
:100050009561000895610008E55E0008EB5E000808
:10006000F15E0008F75E0008FD5E0008956100087B
:100070009561000895610008956100089561000888
:100080009561000895610008956100080000000076
:10009000000000000000000000000000035F0008F6
:1000A0001D6B0008956A0008316B0008B96A0008EA
:1000B000CD6A0008E16A0008F56A00080522000818
:1000C000112200081D22000829220008956100085D
:1000D00095610008415C0008595C000800000000C0
:1000E000195F00087D5400089561000800000000B9
:1000F0000000000000000000000000009561000802
:100100000000000095610008096B00089561000877
:1001100000000000000000000000000000000000DF
:1001200095610008956100089561000895610008D7
:1001300095610008000000000000000000000000C1
:1001400000000000000000000000000095610008B1
:10015000956100089561000895610008715C0008D0
:1001600035220008412200080000000000000000C5
:10017000000000000000000000000000000000007F
:100180000000000095610008000000000000000071
:04019000956100086D
:10019400034613F8012B002AFBD1181A01387047C3
:1001A40053B94AB9002908BF00281CBF4FF0FF31DA
:1001B4004FF0FF3000F00CB8ADF1080C6DE904CE3F
:1001C40007F028F8DDF804E0DDE9022304B0704705
:1001D400704700BF10B5054C237833B9044B13B1F5
:1001E4000448AFF300800123237010BDA000002059
:1001F400000000007875000808B5034B1BB10349E3
:100204000348AFF3008008BD00000000A4000020F4
:1002140078750008F8B505460C468F180026BC42D0
:1002240007D02B6814F8011B1B682846984706441E
:10023400F5E73046F8BD03681847012A03D0022ABF
:1002440003D0002070470160FBE70B680360F8E708
:1002540038B500F10805D0F8B4300446284698476C
:100264004FF6FD73984214D80346B4F8BA20B4F894
:10027400B810284601F04CF894F89030032B08D8B5
:10028400DFE803F002090F13B4F8B8301844A4F8F7
:10029400B800012038BDB4F8BA301844A4F8BA0044
:1002A400F7E7B4F8B830181AF1E7B4F8BA30181A06
:1002B400F4E7083001F090B8006805F0F1B838B5FB
:1002C4000D460446FFF7F8FFA84203D020682946EC
:1002D40005F01AF9204638BD10B5074C14232068E0
:1002E4003B22002101F028FD20681623BDE81040C0
:1002F4000422082101F064BDE003002010B10221B2
:1003040005F094BF704700002DE9F0410E461C46ED
:100314001546DDF818800746FFF7F0FF3046FFF773
:10032400EDFF2846FFF7EAFF2046FFF7E7FF4046C8
:10033400FFF7E4FF064B1F60064B1E60064B1D6073
:10034400064B1C60064BC3F80080BDE8F08100BF7B
:1003540000010020D8000020DC000020E400002080
:10036400E0000020F8B50F7A0C463946054605F042
:10037400CBF800218F4201F1010608DD204606F08A
:100384007BFD0146A81905F0BFF83146F2E7F8BD38
:1003940070B5564B88B06FF480720293A3F57F0357
:1003A4001344039302AE03AD002416F8010B01219C
:1003B40005F03CFF013415F8010B012105F036FF6F
:1003C400042CF2D11E231B2200931D2108231C2080
:1003D400FFF79AFF0121272005F028FF02210C20B6
:1003E400434C444E05F022FF02210F2005F01EFF6E
:1003F4000121192005F01AFF04F1080001F0E6FBC1
:1004040004F1080000F093FD002104F1080001F05C
:10041400E6FB394BC4F8B43004F1080000F05BFD8E
:1004240004F108053146284601F012F8334B28221E
:100434000A212046FFF73DFF3149284601F008F81C
:10044400304B322236212046FFF733FF284600F096
:100454004FFD0028E6D12C4C2C4D2068022101F0E0
:100464002BFC2068012101F009FD062228484FF4E5
:10047400614106F08DF84FF49671264806F09EFC13
:10048400FFF72AFF24492420FFF76CFF1824049463
:1004940015F8011B04A80134FFF711FF242CF6D131
:1004A400A82006F004FD1D49044606F02BFA204658
:1004B40006F0ECF8022242F21071204606F0C6FA69
:1004C400174B0493174B079304A9174B0693204625
:1004D40006F058FB069B1BB104A903220846984763
:1004E400204606F097F908B070BD00BF1416172017
:1004F400F8030020587B00087B170008907500085B
:10050400E683000897750008E0030020F00200204D
:1005140044480020340100207801002000000140FC
:10052400ED0B00083B0200083F0200080D280146BD
:100534000CD1084A13780133DBB2022B137005D9AE
:10054400054B01211970002313707047034806F00E
:1005540086BC00BFFD0200204D01002034010020B4
:1005640070B50C2096B005F029FE02AD2E4600248D
:100574002B2005F045FE0134142C46F8040BF7D16A
:100584000020044655F8043B013014281C44F9D1DA
:100594006423009340F2C26200234FF4486194FB49
:1005A400F0F006F0E3FBC0B2642828BF642016B064
:1005B40070BD0000C74B1B782DE9F743002B40F0BA
:1005C4002181C548C54C00F086FC04F10805C449E6
:1005D400C14800F03DFF0321642001F05FFB0622C7
:1005E400034666212046FFF764FEBE4B1B78022BB0
:1005F4000ED1BD4B1B78092B00F20781BB4B019335
:1006040005230093B448092301225B2100F0F8FB81
:10061400B74B01930723009300220C237121284632
:1006240000F0EEFB0523B34E00930122092372214F
:10063400284600F0EDFBB049284600F009FF306879
:10064400002101F06FFB022180B201F027FB14228C
:1006540003460021A148FFF72CFEA84B9F48132214
:100664000D21FFF726FE306801F056FB022180B20F
:1006740001F014FB1422034611469848FFF719FEB3
:100684009E4B964813222121FFF713FE306801F098
:100694003DFB022180B201F001FB14220346282114
:1006A4008E48FFF706FE306801F078FB022180B225
:1006B40001F0F4FA2022034600218848FFF7F9FDEF
:1006C4008F4B864820220E21FFF7F3FD306801F09E
:1006D4006BFB022180B201F0E1FA202203461421CF
:1006E4007E48FFF7E6FD864B7C4820222221FFF757
:1006F400E0FD306801F05EFB00F5FA60042180B291
:1007040001F0CCFA2022034628217448FFF7D1FDDA
:100714004FF00C087B4B019325220E231821284609
:10072400CDF80080102600F06BFB774B0193232259
:100734000E2300212846009600F062FB734B25220D
:10074400CDE9006328213346284600F059FB704B5D
:100754002522CDE9006337213346284600F050FBBB
:100764006C4B2522CDE900634B213346284600F02B
:1007740047FB694B2522CDE900635A2133462846BD
:1007840000F03EFB6549284600F062FE644B534886
:100794001B683E220021FFF78CFD624B1F78012F5E
:1007A40047D1614B0193002208230093114633463D
:1007B400494800F025FB5D4B1B78012B1CD1FFF74A
:1007C400CFFE5B4B01930D2300931F220C23562174
:1007D4000646414800F014FB50493F4800F038FEFB
:1007E400544BC4F8B83031460A22204606F07EFA4B
:1007F4005149204606F04BFA374800F079FB0028AF
:100804007FF4E5AE03B0BDE8F083A3F10A02042A45
:1008140001D84A4BF3E6A3F10F02042A01D8484B4E
:10082400EDE6143B042B94BF464A474A0192052344
:10083400E7E6022F40F0C280444B019300220823D4
:10084400009311462448DFF8148100F0D9FA404996
:10085400214800F0FDFD98F800300C2B00F2808058
:100864003C4E4FF01809013B09FB03633946988855
:1008740001F014FA1422034650212046FFF719FD13
:1008840013221E4B5E212046FFF713FD98F800301B
:10089400013B09FB03633946188901F0FFF914226F
:1008A400034664212046FFF704FD98F80030013B1D
:1008B40009FB0363587D01F015FB1C2203465A21F2
:1008C4002046FFF7F6FC244B0193082300931122E2
:1008D40073216DE77401002000040020F803002058
:1008E40099A20008F40300204C010020B47600080B
:1008F40020770008E00300202E770008A275000886
:10090400A47500089C760008E67600083C7600088A
:100914005C7600087C7600081C760008D29E0008ED
:10092400C0010020EC020020FC75000884010020B6
:100934000677000864002900A6750008BE76000842
:10094400C8760008D2760008DC7600080C76000829
:10095400249B0008CC010020F4750008FC02002050
:100964000D2BB0D1DFF8BC90264ED9F800304FF0F3
:10097400180808FB03633946988801F08FF914229C
:10098400034650212046FFF794FC13221E4B5E21A0
:100994002046FFF78EFCD9F8003008FB0363394684
:1009A400188901F07BF91422034664212046FFF7DD
:1009B40080FCD9F8003008FB03637BE7002F7FF449
:1009C4001BAF124B01930823009311483A46394652
:1009D40000F016FA0F4B1B78012B7FF40DAFFFF7D5
:1009E400BFFD0D4B01930D23009314224346502168
:1009F4000646074800F004FA0849054800F028FDB7
:100A0400074BEEE6CC010020A2750008147600081E
:100A1400000400208401002006770008D29E00080C
:100A24005F001D0004010020FFF7C4BD37B502219B
:100A34003A483B4D01F07CFA3A48022101F078FA39
:100A4400002428190021103401F072FAC02CF8D1C6
:100A5400354A364D136813F0010F354B01BF02219F
:100A6400D97501211160334A1360334B2B60334B2A
:100A74000024C5E92D3405F108006C6000F0C4FEC3
:100A840028462F4B40F8083B2E4A2F4B2F4900F0A5
:100A940063FA28232622CDE9003205F10800292330
:100AA4002C222A2100F034F929492A4806F0ADF90C
:100AB4002749294806F0A9F92549284806F0A5F947
:100AC4002349274806F0A1F92149264806F09DF953
:100AD4002549264806F099F92549264806F095F94E
:100AE4002549264806F091F9254B2648264AC3E9AC
:100AF4000004C3E90244254B54600121C3E9000406
:100B0400C3E90244117019745C6194609C61D460FF
:100B1400DC61117483F8201003B030BDE4030020BD
:100B240010030020D0030020BC000020F8030020A4
:100B3400C0000020E0030020DC7500086B170008EB
:100B4400EC750008110D00080D0C000848A50008FC
:100B5400DFA50008680100205C01002034010020AA
:100B6400C001002040010020A8750008F002002008
:100B7400AD75000878010020BC7500085001002004
:100B84000003002016000101E80000208801002075
:100B940008B50D4806F0F4F80C4806F0F1F80C48D6
:100BA40006F0EEF80B4806F0EBF80B4806F0E8F810
:100BB4000A4806F0E5F80A4806F0E2F8BDE80840FD
:100BC400084806F0DDB800BF50010020780100207D
:100BD400F002002040010020C00100203401002068
:100BE4005C0100206801002010B5064C054805F0A2
:100BF400F9FB30B1204605F01BFDC0B2FFF796FCAF
:100C0400F4E710BD444800202D2937B504461546A5
:100C140009D8272972D92939042916D8DFE801F01F
:100C2400382525283C00A1F14C03012B45D93F2947
:100C340064D901F03F03C21892F82C00FF2814D0A5
:100C440011F0300F4CD1294643E02C34002514F820
:100C5400010BFF2805D00F2D94BF0121022105F0BF
:100C6400E5FA0135EDB2162DF1D1012003B030BD06
:100C7400234B244A596812682348B2FBF0F2002D32
:100C840014BF154600255A68521A9542FBDCECE75E
:100C9400104605F087FBE8E7194B1B4C5868032AFC
:100CA400184A34BF052102211268B2FBF4F2514301
:100CB4005A68121A9142FBDCD7E701F03F010C4459
:100CC40094F82C0042B9012105F0B0FA94F82C00F4
:100CD400294605F005FBC8E7022105F0A7FAC4E799
:100CE400102B03D1019005F054FA019805F026FB6E
:100CF400003818BF012084F82700B6E70020B5E7C4
:100D0400001000E02800002040420F0000F09DBDCC
:100D140080F835309DF8003080F836309DF8043086
:100D240080F82C1080F82D2080F8373070472DE99A
:100D3400F74F0B449FB2531C9BB290F8AA900093B8
:100D44003B4605460C46904600F014FC50B1B9FAF7
:100D540089FA4FEA5A1A01264FF0000BA74204D130
:100D640085F8AA9003B0BDE8F08F0C9B1B781E4257
:100D740017D085F8AA90CDF800B001234246214649
:100D8400284600F080FB760016F0FF0608BF0C9B97
:100D940004F1010408BF0133A4B204BF0C9301267B
:100DA400DCE795F8A930002BEDD185F8AAA00093D3
:100DB400E3E72DE9F347BDF82850DDF82CA01544EE
:100DC4001E46ADB20B4400959BB281460F461446B5
:100DD40000F0D0FB28B106F10708C8F3CC08A542FF
:100DE40002D102B0BDE8F087CDF800A02246334618
:100DF400394648460134FFF79AFFC244A4B2EEE7ED
:100E040010B4BDF8044001945DF8044BFFF7D1BF62
:100E14002DE9F743BDF8285015441F46ADB2CB1851
:100E240000959BB280460E46144600F0A3FB18B111
:100E34004FF00009A54202D103B0BDE8F083224679
:100E4400CDF800903B4631464046013400F01BFB90
:100E5400A4B2EFE72DE9F743036890F8509090F8B7
:100E6400517093F81180044600262368E06C1B7CC3
:100E740016FB03F189B2C900F5B289B2014457FAED
:100E840086F201350091D2B200212046EDB200F085
:100E940084FEA94504D90136BB19DBB29845E4D8D0
:100EA40003B0BDE8F08303681A7C90F85030C06C3E
:100EB40012FB03F2D200002106F09EB810B5836C39
:100EC40080F8511004461B689847A36C20465B6861
:100ED400BDE81040184710B590F8AB3004460BB18C
:100EE400FFF7E1FF20460021BDE81040FFF7E6BF11
:100EF40038B50446FFF7AEFF94F8515094F85010FB
:100F040023680D445B7CEDB2AB4204D8204600F06C
:100F14006FFE002038BD94F8AB3013B12046FFF7C4
:100F2400C2FF20462946FFF7C9FF0120F2E710B5AA
:100F34000446FFF7D0FF2046FFF7DAFF01460028FA
:100F4400F9D12046BDE81040FFF7B8BF0123037074
:100F540000487047B404002030B585B00D460093B6
:100F640009491346094A044600F070FE0DF10F00CA
:100F7400FFF7ECFF064B9DF80F2000950146204635
:100F840000F0D2FB05B030BD3D1A0008ED19000891
:100F9400A91500084218435C507800EB032080B286
:100FA40070470020704738B50B7803704B78437056
:100FB4008B788370CB78C3700B7903714B79437151
:100FC4008B798371CB79C3710B7A03724B7A437239
:100FD4008B7A8372CB7AC3720B7B03734B7B437321
:100FE4008B7B8373CB7BC3730D460B7C03740446EA
:100FF40011212846FFF7CEFF132160822846FFF710
:10100400C9FF1521A0822846FFF7C4FFE08238BD3E
:1010140070B5047B066862183378D2B2072A43FAA3
:1010240004F507D8EBB202734FF0FF30884023EA8F
:10103400000070BD731C03607378C4F10804E4B24B
:10104400A3402B43083ADBB2D2B2ECE738B5002315
:1010540000F17805044680F88430816790F8901098
:101064002846FFF7D5FF94F8911084F882002846AB
:10107400FFF7CEFF94F8AA3084F88630B3FA83F3EE
:101084005B0984F8830084F8873038BD10B5FFF716
:10109400BFFF4C1E0123E4B203FA04F4001B40B268
:1010A40010BD012B05D0022B05D033B9104480B2FA
:1010B40070470844FBE7801AF9E7401AF7E7012B69
:1010C40005D0022B05D033B9084480B27047801A8A
:1010D400FBE7401AF9E71044F7E72DE9F04F85B034
:1010E40090F8805090F88170039204460E4694F86C
:1010F40082B0B4F87C00ABEB0503DBB2B3420293DD
:1011040028BF33469A46B4F87E304FFA87F907EE83
:10111400903A69B24A4694F88830FFF7D0FF804687
:1011240017EE900AFFF7BDFF03990246A9B194F8A0
:10113400861084F8AA10009341465346204600F0D6
:10114400A2F9029B35449E42EDB20DD3A5EB0B06EA
:101154000137F6B2FFB20025C9E794F885100029DB
:10116400EFD194F88710E4E784F8805084F88190F4
:1011740005B0BDE8F08F2DE9F347044600F1780788
:10118400FFF764FF94F8921094F983603846FFF7F0
:101194007DFF94F8931082463846FFF777FF94F862
:1011A400941005463846FFF771FF94F98290B9F11F
:1011B400000F80464BDD7219524252B294F88830C7
:1011C400B4F87C005146FFF77AFFA4F87C0005468A
:1011D400B4F87E00FFF765FF0246A4F87E00032BF7
:1011E4005CD8DFE803F00238435105EB09018BB208
:1011F400811989B200912046294600F0BBF930B329
:101204000023A4F8803094F88E103846FFF700FFCE
:1012140094F88F1081463846FFF7FAFE05460022FF
:1012240049462046FFF759FF294620460122FFF789
:1012340054FF01213846FFF7EBFE0028EFD194F963
:101244008130B342DFDB94F8863084F8AA3040461C
:1012540002B0BDE8F087C6F1010CAC4400EB090113
:101264000135ABB289B21FFA8CF5C3E7C9F10109A4
:10127400C6F10100A944104401350132ABB291B268
:101284001FFA89F582B2B5E7C9F101090132AB1938
:10129400814491B29BB21FFA89F2ABE701462B4617
:1012A400A8E7036FFF2970B503F117030D4612D8A1
:1012B400602909D9B0F8A0201344587818B11A78D5
:1012C400AA4206D1981C70BD4029F6D9B0F89E20D8
:1012D400F2E70344F1E7B0F8A2401C44264600219B
:1012E4003046FFF757FE022104443046FFF752FE12
:1012F400854206F10406F2D8208840BA80B200285C
:10130400E1D0854201D1E01CDDE7A3781C44F3E77A
:10131400F8B51F4690F8883004460E461546032B50
:1013240007D8DFE803F002151A1E436F98472844D4
:1013340085B2A4F87C60A4F87E5039462046FFF7B5
:10134400B0FF20B101462046FFF715FF80B2F8BD7B
:10135400436F9847301A86B2EBE7436F9847281AD1
:10136400E6E7436F98473044F5E72DE9F0471E461A
:1013740007460C46154600F047FA013E4FF0000AB6
:101384004FF6FF784FF6FE797B6816F8011F384652
:101394009847404503461CD04845F5D02A46214687
:1013A4003846FFF7B5FF97F88830032B05D8DFE8F8
:1013B40003F002090C0E0444A4B20AEB00021FFA63
:1013C40082FAE1E70544ADB2F7E7241AF4E72D1AEF
:1013D400F9E75046BDE8F08710B4034C44605DF86B
:1013E400044BFFF7C2BF00BF6B170008036F10B5B3
:1013F400C3B190F8A53090F9994090F99A1080F80B
:10140400A64080F8A7106BB1012B0CD190F99B304A
:101414009C42B8BF80F8A63090F99C30994201DD17
:1014240080F8A73010BD90F9982090F996301344B5
:101434009C42B8BF80F8A6309142C8BF80F8A7206C
:10144400F0E70000014B4367704700BFA70F000897
:10145400026F8A4210B5044608D001678C30FFF74A
:10146400A2FD2046BDE81040FFF7C0BF10BD70B418
:10147400B0F85660446C9DF80C500395921BA4463A
:1014840092B270BC604770B490F8A4409DF80C50C0
:10149400002C3AD0002B38D0012B04D9022D2BD1AB
:1014A4000131C91A89B215F0010530D1B0F8644090
:1014B40094422AD8B0F86640944226D90B449BB291
:1014C4008B42B0F86060B0F862401CD28C4219D9EB
:1014D400631E9BB29E4218D2B14238BF31469C4231
:1014E40094BFC1EB0404C1EB0304A3B2846C039561
:1014F400A468A44670BC6047032D02BF0132D21A0F
:1015040092B2D0E731468C42E4D870BC7047B0F850
:1015140060408C42F9D8B0F862408C42F5D913444B
:101524009BB29342B0F86460B0F8664010D2944223
:101534000DD9631E9BB29E42E7D2B24238BF3246F7
:101544009C4294BFC2EB0404C2EB0304CDE73246D1
:101554009442F0D8D9E78A4206D2834208D89A4204
:1015640094BF0020012070478342F8D800207047C0
:101574000120704770B504460D461E46B0F866104B
:10158400BDF81030B0F86400FFF7E5FF48B1B4F8D7
:101594006210B4F8600033462A46BDE87040FFF795
:1015A400DABF70BDF0B590F8AA509DF8147002F03F
:1015B40007060124B440012DE4B219D8254619D0F8
:1015C40022F007021FFA82FC026892F810E01EFB68
:1015D4000CF292B21144C26C11446FB90A78013B07
:1015E4002A4362409BB201F8012B002BF6D1F0BDD7
:1015F4000025E5E70024E3E70A7801362A43624040
:10160400013B16F007060A709BB20CD1B0F85220C9
:10161400114490F8AA20012A0AD80BD001242546A7
:10162400002BE9D1E3E76D006400EDB2E4B2F7E723
:101634000124F5E71546F3E7F0B590F85050026839
:1016440090F85170EB00A0F85430137CDB00A0F844
:101654005230FB00A0F85630517CA0F858302C468C
:101664003D448D42C4BFC91B8CB203EBC403A0F834
:101674005A30938AA0F85C30D38AA0F85E30F0BD6B
:10168400FFF7DABF10B49DF8044001945DF8044BF1
:10169400FFF7EDBE13B5B0F86E300093B0F86A30C2
:1016A400B0F86C20B0F868100446FFF763FF18B96F
:1016B40084F8A40002B010BD0123B4F8602084F8BB
:1016C400A430B4F868309A4238BFA4F86030B4F853
:1016D4006220B4F86A309A4288BFA4F86230B4F841
:1016E4006420B4F86C309A4238BFA4F86430B4F87B
:1016F4006620B4F86E309A4288BFA4F86630D9E701
:101704000022A0F86020B0F85C20A0F86220826D6E
:101714004266FFF7BFBF0000024A836CC0E91A2289
:101724005B6818470000FFFF70B5049E4364002502
:1017340040F2011380F8502080F8515080F8855011
:1017440080F8A950A0F8AA300446C164336805673C
:10175400866498472046FFF7DFFF2046FFF772FEB6
:1017640084F8885070BD19B10A2901D088B2704735
:101774004FF6FF707047002943D00A2941D090F8F2
:1017840026306BBBFB2908D9052380F8263001F0ED
:10179400010101844FF6FE7120E0F72905D90423E5
:1017A40080F8263001F00301F3E7EF2905D903237C
:1017B40080F8263001F00701EBE7DF2905D9022381
:1017C40080F8263001F00F01E3E7BF2905D9012392
:1017D40080F8263001F01F01DBE789B20846704724
:1017E400028C01F03F0141EA8211013BDBB289B274
:1017F4004FF6FE72018480F82630002B18BF114684
:10180400ECE74FF6FF71E9E7002380F826307047D4
:1018140010B404690A46A44600235DF8044B202151
:10182400604710B404691346A4460A465DF8044BA5
:101834001721604707B58DF807100DF10702012144
:10184400FFF7EFFF03B05DF804FB14392DE9F0470F
:1018540004461E4600680C2966D8DFE801F03E65A0
:1018640065074E5B6565656565654C0090F80C80A1
:1018740008F0010888F00109B518AE4202D1012030
:10188400BDE8F08716F801AB08271AF0800F14BFE3
:10189400012200224121204600F0B3F94A464021AA
:1018A400204600F0AEF923682C219A79204600F0F6
:1018B400A8F942464021204600F0A3F923682C21D0
:1018C400DA792046013F00F09CF94FEA4A0A17F002
:1018D400FF075FFA8AFAD8D1CFE742784921204638
:1018E40000F08FF923681A7B402102F001022046A0
:1018F40000F087F9C3E74A21F9E702784921204635
:1019040000F07FF922686569927800232C21204633
:10191400A847B4E7C278656900232C212046A8476C
:10192400236849215A78E2E70020A9E710B4C46883
:101934000A46A44600235DF8044B1521604710B401
:10194400C4680A46A44600235DF8044B1621604788
:1019540010B4C4681346A4460A465DF8044B172124
:10196400604710B4C4680023A4461A465DF8044BCB
:101974001821604710B4C4680023A4461A465DF8D1
:10198400044B1921604773B505460C462178192983
:101994000DD8172919D80ED014290AD96278EE68FF
:1019A4008DF8072000232846B0470234EEE7FE29CD
:1019B40012D002B070BD63788DF807300DF10702C4
:1019C40001212846FFF7C4FFEFE70023EE681A461B
:1019D40028460134B047D9E762788DF807202921D9
:1019E400284600F00EF9E0E7F7B51646A1F1140217
:1019F40004460D46052A1CD8DFE802F01203030D45
:101A040012120021FFF704FF31462046FFF712FFB0
:101A1400012003B0F0BD01210193FFF7F9FE019B02
:101A24002769324629462046BC4603B0BDE8F0404B
:101A340060470020EDE7000009392DE9F041044634
:101A440015461F46062964D8DFE801F0040A11632D
:101A540016253300304900F06BF80120BDE8F08111
:101A640000F06BF82D492046FFF78DFFF5E70AB922
:101A74002B49F8E72B49F6E73AB92B49FFF783FFDF
:101A840023689B7C84F82230E7E72849FFF77BFF33
:101A94002368DB7CF6E7FFF764FF81212046FFF72C
:101AA40045FFA9082046FFF74AFF2046FFF762FFDB
:101AB400D3E7FFF756FF7B7994F8221001EBC301BB
:101AC40001F0FF08C1F3031141F010012046FFF7B4
:101AD4002DFF08F00F012046FFF728FFB9792046B3
:101AE40041F0B001FFF722FF3E793F68F600F6B2FD
:101AF40006EB0803842BC4BFC8F18406F6B23A4649
:101B040031462046013DFFF723FF15F0FF05F6D1CE
:101B1400CBE70020A2E700BF70A5000888A5000855
:101B240062A5000869A5000854A500085BA5000883
:101B340001608B7C80F82230704738B5002304465E
:101B44001A4645692821A84700231A46E568142146
:101B54002046A847204601224B2100F052F8236872
:101B640020461A79292100F04CF8204600224B2106
:101B740000F047F8236820461A79292100F041F83B
:101B8400204601224B2100F03CF8236820465A7974
:101B94002921BDE8384000F034B813B58DF804307D
:101BA400049B8DF805108DF80620009384686B461D
:101BB40001220F21A04702B010BD10B48468002395
:101BC400A4461A465DF8044B0921604710B48468A2
:101BD4000023A4461A465DF8044B0A21604710B45A
:101BE40084680A46A44600235DF8044B0B21604731
:101BF40010B484680023A4461A465DF8044B1021EF
:101C0400604710B444690023A4465DF8044B604760
:101C14000020704700230C4A036080F8233080F8CA
:101C240026308361FF23C0E90222C0E9042280F840
:101C3400243080F8283000F12C02423002F8013BB5
:101C44008242FBD1704700BF151C0008F8B5069FFF
:101C5400044616461D46FFF7DDFFC4E90457C4E9F0
:101C640002162046BDE8F840FFF7A7BF70B542F260
:101C74001072441E051D0A26302303E0891A01331D
:101C840089B2DBB29142F9D2B2FBF6F204F8013F19
:101C9400AC42F1D10023437170BD000010B50C4675
:101CA40001460448FFF7E2FFC4F1050450FA84F04A
:101CB40010BD00BF3405002011B18B1E012B08D8C4
:101CC4000229C17502D0032918BF0021084603F078
:101CD400AFB970471FB50C4B1B7804468BB100237A
:101CE4008DF80F300DF10F030093C21C031D811CEE
:101CF400013003F0F3FA9DF80F30003B18BF0123C5
:101D0400237004B010BD00BF3A05002010B504468E
:101D1400FFF7E0FFE07810BD10B50446FFF7DAFFE7
:101D2400A07810BD38B50D460446FFF7D3FF0DB1BA
:101D340023782B70607838BDF7B51F460E4B1B789F
:101D440004460D461646ABB1FFF7C4FF3B2F98BFC0
:101D5400E7702378E2783B2E98BFA670172D98BFC2
:101D64006570003B18BF01230093A1786368607815
:101D740003F07EFA03B0F0BD3A050020064B1B7851
:101D840043B100F10B0300F10A0200F1090108302C
:101D940003F0F6BA704700BF3A05002010B50446B8
:101DA400FFF7ECFFA07A10BD10B50446FFF7E6FF7D
:101DB400607A10BD10B50446FFF7E0FF207A10BD2D
:101DC4002DE9F0411D460F4B1B7804460F4616467D
:101DD400ABB1FFF7D3FF7B1E1E2B06F1FF3398BF79
:101DE400A7720B2B98BF6672632D98BF2572E37A96
:101DF400A27A617A207ABDE8F04103F09DBABDE889
:101E0400F08100BF3A05002010B51A4B1B7886B04C
:101E1400044613B300238DF816300DF11703029313
:101E24000DF11603019300F11003009300F10E026B
:101E340000F10F0300F10D010C3003F0BFFA9DF81F
:101E44001630003B18BF012323759DF817301F2B54
:101E54000DD8022B03D808D0637506B010BD064A0E
:101E6400012199400A40002AF6D10023F4E73F2BD0
:101E7400FBD1F1E73A0500208880008038B5174D82
:101E84002A780446FAB9081EE17D18BF0120022908
:101E940002D0032918BF0021114B1A7803F032F93C
:101EA400012320462B70FFF715FF2046FFF766FF3E
:101EB400A37A6278237363686273236162882378E8
:101EC400E281237538BDFFF705FF2046FFF756FF73
:101ED4002046BDE83840FFF797BF00BF3A05002011
:101EE4003B05002000EB4000064AC3B20648D15C23
:101EF400017013445A789B78837000234270C37036
:101F0400704700BFAFA500083C05002008B504F0E9
:101F140045FA4FF47A73B0FBF3F008BD38B5836823
:101F240004460D4698470123C4E90005237338BDD0
:101F3400012910B5044609D0022909D1054BA36033
:101F440020460021FFF7EAFF204610BD024BF6E7CA
:101F5400024BF4E7111F0008A5630008A163000801
:101F640070B5124E034600F130014FF6FF720125A1
:101F740000241A805E601D725C720C338B42F8D1AF
:101F84000B490C4B8C69028633F81440A0F890403E
:101F9400CC69496933F8144033F81130A0F8924001
:101FA400A0F89430A0F8962070BD00BF00093D0051
:101FB40084AA0008ACAA00080148FFF7D1BF00BFFB
:101FC40048050020827D407D101A7047437D827D44
:101FD4009A4285BF0269D25C4FF0FF32013388BF59
:101FE400437510467047827D437D9A4286BF0269DD
:101FF400D05C4FF0FF307047202938B538BF20211E
:10200400054680690C4605F0A9F810B1A8612C7743
:1020140038BD21460248BDE8384003F033BA00BF5A
:10202400C8A5000813B5C37F8DF807100446BBB1DB
:10203400817F037F0131994201D9FFF7DDFFA06958
:1020440018B90123636002B010BD637F9DF80720B7
:10205400C254637F0133DBB26377A3770120F2E7D5
:1020640001220DF10701243000F060F8B0FA80F08D
:102074004009E8E770B5C37F04460E461546CBB168
:10208400837F9918037F994201D9FFF7B5FFA369AC
:1020940023B9012262601D46284670BD607F2A462E
:1020A4001844314604F09AFF637F2B44DBB2637714
:1020B400A377F1E792B2243000F038F8002818BF73
:1020C4000025E9E700214FF47A72C0E90112054ABC
:1020D4000260054AD18DA0F88010928DA0F882206C
:1020E400704700BFE8A50008ACAA0008836923B1C3
:1020F400027F0021184604F07FBF7047002110B50D
:10210400044641758175006910B1227D04F074FFA5
:1021140000236377A3772046FFF7E8FF10BD000094
:102124000148FFF7CFBF00BFE0050020202A30B5EB
:102134000ED800239CB2A24204D8D2B280F89020D8
:10214400002030BDC418CD5C84F870500133F1E731
:102154000120F6E7C3689A4210B504461DD179B947
:10216400836E80F88D100BB10438984794F88C2056
:1021740004F16C0120462023BDE8104000F0A8BD06
:1021840000230122036680F88D20016E0144BDE81E
:10219400104004236C3100F0D6BD10BD10B590F88A
:1021A4008D30012B044604D1036E13B1436E043801
:1021B4009847022384F88D30002323662046BDE827
:1021C400104000F0FBBD036E1F2BDEBF036E013316
:1021D400036690F88D30012BDAB205D1016E01440B
:1021E40004236C3100F0AFBD7047002380F88C30BD
:1021F400704790F88E300BB900F0E0BD70470000D6
:10220400014B186800F0E2BEA0060020014B1868DC
:1022140001F0E2BAA0060020014B586800F0D6BED7
:10222400A0060020014B586801F0D6BAA006002091
:10223400014B986800F0CABEA0060020014B9868C4
:1022440001F0CABAA006002010B50A4C226813187F
:10225400EFF308818B4206D9074B0C221A604FF02A
:10226400FF32104610BD05490548091A8B42F3D2C6
:102274002360F6E7000000209049002000000120C0
:1022840000040000FEE70000024B16221A604FF023
:10229400FF307047904900200120704770470000CC
:1022A40038B50E4A0E4B054618784FF47A73B3FBD3
:1022B400F0F31068B0FBF3F000F0CAFA044658B922
:1022C4000F2D09D8024629464FF0FF3000F06CFA72
:1022D400044B20461D6038BD0120FCE72800002087
:1022E400040000200800002008B50B4B1A6842F4D3
:1022F40000721A601A6842F480621A601A6842F422
:1023040080721A60032000F03DFA0020FFF7C8FF36
:10231400FFF7C4FF002008BD003C0240034A044B01
:1023240011681B780B441360704700BF6C49002090
:1023340004000020014B1868704700BF6C4900205E
:1023440038B50446002800F09B80056C25B903F0DD
:1023540099FC656484F83C50236CDB0600F18E80A4
:10236400236C23F4885323F0020343F00203236411
:10237400444B5A6822F440325A605A6861680A43EE
:102384005A60236821695A6822F480725A605A6834
:1023940042EA01225A605A68A16822F040725A60E7
:1023A4005A680A435A609A68E16822F400629A60A3
:1023B4009A680A439A603449A26A8A4252D0996858
:1023C40021F07061996099680A439A609A68E16A99
:1023D40022F040529A609A680A439A609A6822F0FE
:1023E40002029A609A68217E42EA41029A6094F855
:1023F4002020002A3ED05A68616A42F400625A6082
:102404005A6822F460425A605A68013942EA4132F9
:102414005A60DA6AE16922F47002DA62DA6A01392E
:1024240042EA0152DA629A6822F400729A609A6867
:1024340094F8301042EA41229A609A68616922F461
:1024440080629A609A68002042EA81229A606064FD
:10245400236C23F0030343F001032364002384F873
:102464003C3038BD9A6822F070629A609A6822F013
:102474004052B2E75A6822F40062C9E70120EDE74E
:102484000120EEE7002301400100000F38B50446A7
:10249400A0B1036C43F00203036403689A6822F05A
:1024A40001029A609D6815F0010503D103F00EFC4A
:1024B40065642564002084F83C0038BD0120FCE7F5
:1024C40082B00023019390F83C30012B4ED00123BD
:1024D40080F83C3003689A68D10705D59A68D2071A
:1024E40014D4002002B070479A68214942F00102D6
:1024F4009A60204A1268B2FBF1F202EB42020192A6
:10250400019A002AEAD0019A013AF8E7026C22F40F
:10251400E06222F0010242F4807202645A685105BA
:1025240041BF026C22F4405242F480520264026CB5
:1025340012F480521CBF426C22F006024264002254
:1025440080F83C206FF022021A600B4A5268D206CF
:1025540008D1986810F04050C3D19A6842F0804284
:102564009A60BFE7054A9342BBD1F2E70220B9E77C
:1025740040420F00280000200023014000200140B9
:1025840090F83C30012B14D003689A6822F00102C1
:102594009A609B68DB0707D4036C23F4885323F009
:1025A400010343F001030364002380F83C30184620
:1025B40070470220704703689A68520570B5044654
:1025C4000D460BD59B68DE0508D5036C43F020034C
:1025D4000364002380F83C30012070BDFFF7AAFE9D
:1025E400064623681A6891070CD56FF012021A6028
:1025F400226C42F4007222649A6812F0405F13D095
:102604000020EAE7681CEDD045B9236C43F00403CD
:102614002364002384F83C300320DEE7FFF78AFEBE
:10262400801BA842DDD9F0E7207E0028E8D1DA6AD1
:1026340012F4700F02D09B685A05E1D4236C23F482
:1026440080732364236CDB04DAD4236C43F001032A
:102654002364C2E70368D86C70470000F7B5002311
:10266400019390F83C30012B66D0012380F83C3074
:102674000D6803688E68092DACB231D904EB4402AD
:10268400DF681E3A4FF0070C0CFA02FC27EA0C072D
:10269400DF60DF6806FA02F23A43DA604968062925
:1026A40001EB81022CD8596B053A1F26964021EA8A
:1026B40006015963596B04FA02F20A435A632C4A1D
:1026C400934207D1122D39D1D2F8043343F4800355
:1026D400C2F80433002380F83C30184603B0F0BD40
:1026E4001F6905EB45024FF0070C0CFA02FC27EAC0
:1026F4000C071F611F6906FA02F23A431A61CDE71B
:102704000C294FF01F010BD81E6B233A914026EA87
:1027140001011963196B04FA02F20A431A63CEE742
:10272400DE6A413A914026EA0101D962D96A04FA83
:1027340002F20A43DA62C2E70220CFE7A5F11003EE
:10274400012BC7D80B4A5368102D43F40003536080
:10275400C0D1094B094A1B68B3FBF2F20A23534365
:102764000193019B002BB5D0019B013BF8E700BF0F
:1027740000200140002301402800002040420F00B7
:10278400006C70470749CA6822F4E062030212042D
:1027940003F4E063120C134343F0BF6343F40033C8
:1027A400CB60704700ED00E0164B30B5DC68C4F335
:1027B4000224C4F10705231D042D28BF0425062B7C
:1027C4004FF0FF338CBF033C002403FA05F521EAE4
:1027D4000501A34022EA0302A140002841EA0203C2
:1027E400ACBF00F16040084A4FEA0313B8BF00F0E1
:1027F4000F00DBB2AABF00F56140135480F8003328
:1028040030BD00BF00ED00E014ED00E0002808DB5F
:102814004209012300F01F0003FA00F0014B43F8C2
:102824002200704700E100E000280DDB430901228B
:1028340000F01F0002FA00F02033044A42F823009B
:10284400BFF34F8FBFF36F8F704700BF00E100E00D
:102854000138B0F1807F0AD2064B074A5860F02154
:1028640082F823100020072298601A607047012024
:10287400704700BF10E000E000ED00E0002809DB35
:102884004309012200F01F0002FA00F06033024AFB
:1028940042F82300704700BF00E100E0704708B52C
:1028A400FFF7FCFF08BD90F83530022B03D08023DE
:1028B4004365012070470268052380F835301368AA
:1028C40023F0010313600020704790F8350070472F
:1028D400094910B50C6924F440740C610C6944F482
:1028E40040740C610C6944F001040C610260BFF394
:1028F4006F8F436010BD00BF003C0240074B1A6954
:1029040022F440721A611A6942F400721A611A6957
:1029140042F001021A610160704700BF003C0240AE
:10292400074B1A6922F440721A611A6942F48072E0
:102934001A611A6942F001021A610180704700BFEE
:10294400003C0240204BDA68D00606D51F49CA690C
:1029540042F01002CA611022DA60DA68910606D5E4
:102964001A49CA6942F00802CA612022DA60164B89
:10297400DA68520606D51549CA6942F00402CA61EA
:102984004022DA60DA68100606D51049CA6942F0B6
:102994000202CA618022DA600B4BDA68D10507D5DE
:1029A4000A49CA6942F00102CA614FF48072DA60CE
:1029B400DA68920706D50549CA6942F02002CA615D
:1029C4000222DA60704700BF003C024070490020D8
:1029D400064B1A69002ABFBF054A5A6002F18832C1
:1029E4005A60BABF1869C00F00207047003C02400B
:1029F40023016745034A136943F000431361002030
:102A0400704700BF003C0240F8B5124B124D002243
:102A14000446DA61FFF78EFC2F460646EB68DA03BC
:102A24000CD4EB68DB0744BF0123EB60F86810F4B7
:102A3400F97007D0FFF786FF012003E0611CEDD099
:102A44000CB90320F8BDFFF775FC801BA042E5D943
:102A5400F7E700BF70490020003C0240F7B5204E64
:102A640001931446327E012A07460D4635D00122D1
:102A74004CF250303276FFF7C7FFB8B9019BCFB99B
:102A8400184B186920F4407018611A691A611869A2
:102A9400E4B240F0010018612C704CF25030FFF7A2
:102AA400B3FF104A136923F0010313610023337643
:102AB40003B0F0BD012F04D1A1B22846FFF730FFC7
:102AC400EBE7022F04D121462846FFF717FFE4E77E
:102AD40022462846FFF7FCFEDFE70220E8E700BFB6
:102AE40070490020003C0240074B196921F44071F1
:102AF4001961196941F0040119611A6942EA002057
:102B040040F4803018617047003C024039B101291B
:102B14001CD002290CBF4FF400714FF440710D4BCF
:102B24001A6922F440721A611A69114319611A6907
:102B340022F0F8021A611A6942EAC00040F0020069
:102B440018611A6942F480321A6170474FF4807137
:102B5400E5E700BF003C0240144B1A6891050FD50D
:102B64001A6822F400721A601A6842F400621A6049
:102B74001A6822F400621A601A6842F400721A6039
:102B84000A4B1A6852050FD51A6822F480621A603B
:102B94001A6842F480521A601A6822F480521A6049
:102BA4001A6842F480621A60704700BF003C024019
:102BB4002DE9F843234E337E012B054688463FD04A
:102BC40001234CF250303376FFF71EFF0446A8B9B8
:102BD4004FF0FF33C8F800302B68012B13D1287C49
:102BE400FFF782FF4CF25030FFF70EFF164A1369CD
:102BF40023F0040304461361FFF7AEFF002333768A
:102C04002046BDE8F883AF68DFF83C90D5E902239D
:102C14001344BB42F0D9297C3846FFF777FF4CF2C6
:102C24005030FFF7F1FED9F8103023F0FA03C9F859
:102C3400103018B1C8F800700446DDE70137E5E745
:102C44000224DDE770490020003C0240044A516937
:102C5400014208B502D0506103F02CF908BD00BF51
:102C6400003C0140036D83B9C36C0268012B836C83
:102C740005D1DBB21361036D023303657047C3F3FF
:102C840007231361036D0133F7E7036D012B03D1B0
:102C9400836C0268DBB2F4E7036D022B17D190F862
:102CA4003D30222B05D10268136843F4807313600E
:102CB400704790F83D30212B09D1436A026813F81C
:102CC400011B11614362438D013B9BB243857047F5
:102CD40037B590F83D4004F02804282C31D1002960
:102CE4002DD0002A2BD090F83C40012C29D0056827
:102CF4002C68E4075EBF2C6844F001042C602C6847
:102D040024F400642C60292480F83D40202480F8B9
:102D14003E40002404644285428DC36201946B6981
:102D24000193AB69019380F83C40019B6B6841625D
:102D340043F4E06302856B60204603B030BD01209C
:102D4400FBE70220F9E737B590F83D4004F028048A
:102D5400282C31D100292DD0002A2BD090F83C40CA
:102D6400012C29D005682C68E4075EBF2C6844F068
:102D740001042C602C6824F400642C602A2480F85C
:102D84003D40202480F83E40002404644285428D66
:102D9400C36201946B690193AB69019380F83C4071
:102DA400019B6B68416243F4E06302856B602046DB
:102DB40003B030BD0120FBE70220F9E790F83D3075
:102DC400202B14D1282380F83D3003681A68D207D9
:102DD4005EBF1A6842F001021A601A6842F4806207
:102DE4001A605A6842F440725A6000207047022008
:102DF40070477047704770477047704738B5806BAD
:102E040090F83D20456BD2B20DB10023EB63846B87
:102E14000CB10023E3630368196821F4806119602D
:102E24000021418505B1296504B12165196821F0A6
:102E34000101196090F83D10602909D1202380F820
:102E44003D30002380F83E300364FFF7D6FF38BDE1
:102E540002F02802282A0ED1196841F001011960F4
:102E6400196841F4806119600023036380F83D20F0
:102E7400FFF7BFF9EBE7202380F83D30002380F80B
:102E84003E30F5E710B590F83D2090F83E10036809
:102E940010290446D2B212D1222A10D1196821F481
:102EA400006119605968080504D4602A1CBF2022F7
:102EB40084F83D200022226384F83E2007E002F0DB
:102EC40028012829EED10022226384F83D105A6893
:102ED40012F400624FD05A68606B22F400625A60A8
:102EE40090F83530012B374B2BD00365FFF7DBFC13
:102EF40050B12268606B136823F001031360202330
:102F040084F83D30036D9847236C19071FBF22686E
:102F1400536823F4E063536094F83D30226C520705
:102F2400DBB20DD5282B0BD1274BE36220220023E3
:102F34002363204684F83D2084F83E30FFF72EF9C1
:102F440010BDA06B0365FFF7AEFC0028DCD023683E
:102F54005A69510605D51A69636A1A70636A01339E
:102F640063622268A06B136823F0010313602023BB
:102F740084F83D30C6E794F83D10602915D120212E
:102F840084F83D1022645A69520605D51A69636AA9
:102F94001A70636A013363622268136823F00103C1
:102FA40013602046FFF729FFAEE75A69500605D59E
:102FB4001A69636A1A70636A013363622046FFF711
:102FC40018F9A1E7012E00080000FFFF70B503689F
:102FD4005A68C16A90F83E50044690F83D00102D9E
:102FE4008CB0EEB2C0B202D0402E40F099829D69FE
:102FF4005869C60707D4B1F52A0F02D0B1F12A4F98
:1030040050D10CB070BD91054CD5E26AB2F52A0FCF
:103014000CD10122E26294F83E20402A11D1226DA3
:1030240052B9626C02F0FE021A61EAE7E26AB2F196
:103034002A4FF0D10822EDE7626C42F00102D2B2CD
:10304400F2E72269B2F5804F19D194F83D20212A84
:10305400626C16BF42F0010202F0FE02D2B21A61A3
:10306400626B0AB1D26B2AB9A26B002AC9D0D26BA7
:10307400002AC6D05A6842F400625A60C1E7226D41
:1030840032B9626CD21102F0060242F0F002CBE7D0
:10309400226D012AB5D1626CD21102F0060242F00F
:1030A400F102C1E706070ED591050CD5626CD2B2C8
:1030B4001A61626B12B9A16B0029A2D0D26B002AEB
:1030C400D8D1A26BD3E7860740F1DD80910540F1AA
:1030D400DA8094F83E10E26A256B94F83D002228C9
:1030E400C9B240F0C880206D40B9402906D1019092
:1030F4005A6901929B690193019B82E7216D89B909
:103104002069B0F5404F0DD102915A6902929A6933
:103114000292029A1A6842F480721A60236D013393
:1031240023656EE7618D89B251B903915A6903929F
:103134009A690392039A1A6842F400721A6019E0B9
:10314400618D89B2012949D112F5803F1BD11A68DA
:1031540022F480621A605A6812F400620CD01A6871
:1031640022F480621A60002204925A6904929B69D4
:103174000493049B0023D3E705925A6905929A6944
:103184000592059AD7E7082A1CD0202A1AD0122DB6
:103194000DD1012A16D11A6822F480621A60002225
:1031A40006925A6906929B690693069BE2E7102AE7
:1031B400F1D8A44921FA02F2D207ECD51A6842F4F4
:1031C4008062EBE71A6822F480621A600022079298
:1031D4005A6907929A690792079AACE7618D89B296
:1031E40002292AD1102A03D89649D140CE0720D4E7
:1031F400196821F480611960196841F4006119604B
:1032040059680D050DD512F5803F06D0511E1F29B2
:1032140007D88D4ACA40D00703D55A6842F4805271
:103224005A60002208925A6908929B690893089B85
:10323400A0E7196841F48061E1E7196841F480610D
:103244001960596809050ED512F5803F07D0013A77
:103254001F2A08D87C4921FA02F2D60703D55A68F6
:1032640042F480525A60002209925A6909929B6979
:103274000993099B7EE700220A925A690A929B6984
:103284000A930A9BBDE66D07596840F18B800E05D1
:103294003FF5B7AE0506C0F380013ED550053CD5D9
:1032A40000293DD194F83D20258D94F83E10E06A24
:1032B400D2B2C9B2C5B9212A18D1082855D02028BC
:1032C40053D010F5803F50D05A6822F4E0625A601F
:1032D40011232363002384F83E30202384F83D30F7
:1032E4002046FFF786FD8CE6212A05D040297FF48D
:1032F40088AE222A7FF485AE628D92B21AB95A68DA
:1033040022F48062B9E694F83E20402A13D1204684
:103314000CB0BDE87040FFF7A5BC00293FF471AEC6
:1033240092057FF56EAEE16A94F83D20212A33D1EF
:10333400628D92B24AB1626A12F8011B196162622B
:10334400638D013B9BB263855BE608290DD0202980
:103354000BD011F5803F08D0596821F4E061596021
:103364001123236384F83E20B7E75A6822F4E0620D
:103374005A601A6842F400721A6000232022236300
:1033840084F83D2094F83E2084F83E30402A2046BC
:10339400A7D1FFF730FD34E694F83E30402B7FF49C
:1033A40030AEB4E70E053FF52CAE4506C0F3800100
:1033B4004CD550054AD500294BD194F83D20222AFA
:1033C4007FF41FAE628D92B2032A14D91A69636A1C
:1033D4001A70636A01336362638D013B9BB2638538
:1033E400638D9BB2032B7FF40CAE2268536823F4E5
:1033F4008063536005E6E06A02283FF402AE012AC6
:103404003FF6FFAD1A6822F480621A605A6822F40B
:10341400E0625A601A69636A1A70636A013363620C
:10342400638D013B9BB26385202384F83D3094F87F
:103434003E3084F83E10402B6CD121632046FFF7C8
:10344400DBFCDEE5140001008180008000293FF4EC
:10345400D8AD92057FF5D5ADE26A608D616A80B220
:10346400042809D15A6822F480625A601B690B70DF
:10347400636A0133636263E7608D80B203280CD111
:103484005868042A20F480605860EFD0022AEDD0F6
:103494001A6822F480621A60E8E7608D80B202281C
:1034A400E4D1012A01D0102A28D11A6822F48062BA
:1034B4001A601B690B70626A531C6362638D013B63
:1034C4009BB2638523681B695370636A2268013366
:1034D4006362638D013B9BB26385536823F440733D
:1034E4005360202384F83D3094F83E30402B4FF055
:1034F400000384F83E300DD123639FE7042A01D0F2
:10350400022A03D11A6842F48062D1E71A6842F4AD
:103514000072CDE7122323632046FFF76BFC70E5AE
:10352400216C11B3596900258E0728D5960526D537
:10353400226C02B19D6994F83D2002F02802282AE9
:1035440016D15A6822F480625A606FEA95012B06FC
:103554004FF0000354BFA289228B84F83C3001F061
:1035640001012046FEF7F6FD4BE59D695969DBE74D
:103574006FF002025A61002384F83C3041E5CE0624
:1035840040F1B180950540F1AE8094F83D505A6801
:1035940022F4E0625A6000220B925A690B921A6874
:1035A40042F001021A600B9A1A6822F480621A60CF
:1035B4005A681205EDB220D505F0F702222A4AD145
:1035C400A06B0268526892B26285628D92B21AB19F
:1035D400226C42F0040222645A6822F400625A60A7
:1035E400FFF773F9012808D0A06B794B0365FFF747
:1035F4005AF910B1A06B036D9847638D9BB213B356
:1036040023685A69560709D51A69636A1A70636A86
:1036140001336362638D013B9BB2638523685A69FE
:10362400500609D51A69636A1A70636A01336362C2
:10363400638D013B9BB26385638D9BB21BB1236C8D
:1036440043F004032364236C13B320460CB0BDE899
:103654007040FFF717BC606B0268526892B26285D3
:10366400628D92B21AB1226C42F0040222645A684A
:1036740022F400625A60FFF728F90128BDD0606B7C
:10368400534B0365FFF70FF90028B6D0606BB2E720
:103694002A2D06D12363282384F83D302046FEF7E3
:1036A40092FD94F83D30282B0CD14A4BE362202242
:1036B40000232363204684F83D2084F83E30FEF73F
:1036C4006DFD9EE4236B222B02D0222D7FF499AC56
:1036D40000232022236384F83D2084F83E302046D2
:1036E400FEF771FD8DE400F0F7002128C1F3800599
:1036F40035D1090627D5560525D53DBB94F83D108F
:10370400628D92B2C9B2002A3FF47BAC626A12F8AD
:10371400015B1D616262628D013A92B26285628DC3
:1037240092B2002A7FF46DAC29297FF46AAC5A68FE
:1037340022F480625A602823206384F83D302046B6
:10374400FEF753FD5DE4002D3FF45BAC95057FF57A
:1037540058AC628D92B2002A3FF453ACEBE54806B4
:1037640027D5510525D53DBB94F83D20618D89B2FF
:10377400D2B200293FF445AC1969636A1970636ACF
:1037840001336362638D013B9BB26385638D9BB29E
:10379400002B7FF436AC2A2A7FF433AC22685368BA
:1037A40023F48063536022232363282384F83D3069
:1037B40095E7002D3FF425AC92057FF522AC628D90
:1037C40092B2002A3FF41DAC1A69636A1A704FE67C
:1037D400012E00080000FFFFF8B503685F695E680A
:1037E40090F83E200446F805D2B2C7F3002508D568
:1037F400F10548BF6FF48071C6F3002544BF5961D9
:103804000125B80506D5F10542BF6FF4007145F0F6
:1038140002055961780536D5F10534D5608D94F8E3
:103824003D10D4F830C0202A80B2C9B25BD1002840
:1038340059D101F0F700212804D0282953D1BCF133
:10384400210F50D194F83D20E16A0829D2B201D069
:1038540020292AD1282A28D12B4AE2625A6822F444
:10386400E0625A606FF480625A611A6822F48062DE
:103874001A60002320222363204684F83D2084F824
:103884003E30FEF78BFC3A053BD5F30539D523686A
:103894006FF4006245F008055A61236C1D432564EA
:1038A4002046BDE8F840FFF7EDBA212A17D11649A2
:1038B400E1622263202284F83D20002284F83E2025
:1038C4005A6822F4E0625A606FF480625A611A689E
:1038D40022F480621A602046FEF787FCD3E76FF477
:1038E40080625A61CFE76FF48061102A596145F014
:1038F400040501D0402AC6D11A6842F400721A6045
:10390400C1E7002DC9D1F8BD0000FFFF014B012222
:103914001A60704720000E422DE9F341044640B37B
:103924000368DD0710D4236898075ED423681A0758
:1039340000F1A08023685B0700F1BE80A069002825
:1039440040F01F8100202BE0A64B9A6802F00C0285
:10395400042A07D09A6802F00C02082A0BD15A688C
:10396400510208D59F4B1B689A03DCD56368002B72
:10397400D9D1012014E06268B2F5803F13D11A68EE
:1039840042F480321A60FEF7D5FC964E0546336841
:103994009B03C8D4FEF7CEFC401B6428F7D9032050
:1039A40002B0BDE8F0818F4DB2F5A02F2B6807D18E
:1039B40043F480232B602B6843F480332B60E2E7CD
:1039C40023F480332B602B6823F480232B60002A9C
:1039D400D9D1FEF7AFFC06462B689F03A3D5FEF7AB
:1039E400A9FC801B6428F7D9D9E77E4B9A6812F0AA
:1039F4000C0F07D09A6802F00C02082A11D15B68F8
:103A04005E020ED4774B1A68950702D5E268012A44
:103A1400AFD11A68216922F0F80242EAC1021A60A1
:103A240084E7E268704BB2B101221A60FEF782FCAF
:103A34006C4D06462B68980707D52B68226923F03E
:103A4400F80343EAC2032B6070E7FEF773FC801BA4
:103A54000228EFD9A3E71A60FEF76CFC614E054615
:103A6400336899077FF562AFFEF764FC401B0228B8
:103A7400F6D994E762695D4B7AB101221A60FEF7C8
:103A840059FC584E0546736F9F073FF553AFFEF739
:103A940051FC401B0228F6D981E71A60FEF74AFC64
:103AA400504E0546736F98077FF544AFFEF742FC0E
:103AB400401B0228F6D972E74A4B1A6C12F0805266
:103AC40028D101921A6C42F080521A641B6C03F0E4
:103AD40080530193019B0127454D2B68D9051BD5C4
:103AE400A368404D012B27D12B6F43F001032B67B3
:103AF400FEF720FC3B4E054641F28838336F9B07A6
:103B040039D5002F3FF41AAF364A136C23F0805393
:103B1400136413E70027DFE72B6843F480732B60FB
:103B2400FEF708FC06462B68DA05D9D4FEF702FC3A
:103B3400801B0228F7D932E7052B04D12B6F43F001
:103B440004032B67D0E72A6F22F001022A672A6F49
:103B540022F004022A67002BCAD1FEF7EBFB41F2E4
:103B6400883806462B6F9807CBD5FEF7E3FB801BFE
:103B74004045F7D913E7FEF7DDFB401B4045BDD9AF
:103B84000DE7184DAB6803F00C03082B47D0194E12
:103B940000230228336035D1FEF7CCFB07462B689F
:103BA400990129D4D4E907321343626A43EA8213A0
:103BB400E26A43EA0263A26A5208013A43EA024310
:103BC4006B6001233360FEF7B5FB064D04462B689A
:103BD4009A013FF5B7AEFEF7ADFB001B0228F6D9FC
:103BE400DDE600BF0038024000004742800E474235
:103BF4000070004060004742FEF79CFBC01B022897
:103C0400CDD9CCE6FEF796FB04462B689B017FF5E5
:103C140099AEFEF78FFB001B0228F6D9BFE60128F8
:103C24003FF4BEAEAB68E26903F4800191427FF4D5
:103C3400A0AE216A03F03F028A427FF49AAE616A21
:103C440047F6C0721A408A427FF493AEA16A03F425
:103C540040328A427FF48DAEE26A03F0706393428D
:103C64003FF470AE85E600BF134908B58B6803F0D6
:103C74000C03042B1CD0082B1CD14A684B684968E0
:103C840013F4800314BF0D480D48C1F3881118BF05
:103C9400002302F03F02A1FB0001FCF781FA064B6E
:103CA4005B68C3F3014301335B00B0FBF3F008BD71
:103CB4000248FCE70248FAE70038024000127A00A2
:103CC4000024F4002DE9F0410D46044610B901200A
:103CD400BDE8F081444B1A6802F00F028A4228D3EF
:103CE400226897072DD4D00741D43F4B1A6802F0BD
:103CF4000F02AA4266D8226851076CD4130707D56D
:103D04003A4A2169936823F4604343EAC103936008
:103D1400FFF7AAFF354B364A9B68C3F30313D35C02
:103D2400D840344B1860344B1868FEF7B9FA0020B9
:103D3400CEE7CAB21A701B6803F00F038B42C6D1D8
:103D4400CEE72A4B12F0040F1EBF996841F4E051EC
:103D54009960160742BF996841F46041996023490C
:103D6400A0688B6823F0F00303438B60BBE76268B1
:103D74001E4B012A1CD11B6813F4003FA7D01B4E15
:103D8400B36823F003031343B360FEF7D3FA41F29D
:103D940088380746B368626803F00C03B3EB820FFC
:103DA400A3D0FEF7C7FAC01B4045F3D903208FE721
:103DB400911E01291B6802D813F0007FDEE713F07F
:103DC400020FDBE7EAB21A701B6803F00F03AB4281
:103DD4007FF47DAF8FE70549E0688B6823F4E053F7
:103DE40003438B608AE700BF003C02400038024076
:103DF40095A700082800002008000020014B18683F
:103E0400704700BF28000020044B054A9B68C3F399
:103E14008223D35C034A1068D840704700380240BC
:103E2400A5A7000828000020044B054A9B68C3F39B
:103E34004233D35C034A1068D840704700380240CC
:103E4400A5A70008280000200F2303600B4B9A68E5
:103E540002F0030242609A6802F0F00282609A68FB
:103E640002F4E052C2609B68DB0803F4E053036190
:103E7400034B1B6803F00F030B60704700380240CC
:103E8400003C0240036813F0050FF7B504463CD12B
:103E940023689A0730D500230193444B444D1A6C90
:103EA40042F080521A641B6C03F080530193019B0F
:103EB4002B6843F480732B60FEF73CFA06462B68AC
:103EC400D9054AD5394D2B6F13F440734BD1E368B0
:103ED40003F44072B2F5407F344A63D1916823F011
:103EE400704021F4F81120F4407001439160116F87
:103EF400C3F30B030B431367206810F008001FBFC4
:103F04002C4B227C1A60002025E02B4F274E0023E7
:103F14003B60FEF70FFA054633681B0115D4D4E95C
:103F240001231B0743EA8213C6F8843001233B6054
:103F3400FEF700FA1D4E054633681801A8D4FEF7B3
:103F4400F9F9401B0228F7D904E0FEF7F3F9401B06
:103F54000228E1D9032003B0F0BDFEF7EBF9801B82
:103F64000228ACD9F6E7E26802F440729342AED07C
:103F74002B6F124A0121116023F440730021116058
:103F84002B672B6FDA07A2D5FEF7D4F941F28837F5
:103F940006462B6F9B079AD4FEF7CCF9801BB842D8
:103FA400F7D9D7E7916821F4F8119FE70038024068
:103FB40000700040E011474268004742400E47420B
:103FC400032303600C4BD3F88420C2F388124260AD
:103FD400D3F88420C2F30272826099681A6F01F4E4
:103FE400F81102F440720A43C260D3F88C30C3F370
:103FF40000630374704700BF00380240704700003C
:1040040003689A68D20410B504460AD5DB68D9055A
:1040140007D501F025FA2268D368DBB263F4C073D4
:10402400D36023689A6892040BD5DB689B0508D596
:10403400204600F00AFA2268D368DBB263F42073E6
:10404400D360034B4FF400325A610123637710BDF0
:10405400003C0140026838B5D36823F0A003D36064
:104064000446FEF767F905462368DB689B0601D51D
:10407400002038BDFEF75EF9401BB0F57A7FF3D916
:104084000320F6E738B50368DA685206044601D51A
:10409400002038BD4FF0FF32DA60FEF74BF90546D9
:1040A4002368DB685B06F3D4FEF744F9401BB0F5E4
:1040B4007A7FF5D90320ECE738B50446B8B1437FDD
:1040C40003F0FF0213B90277FFF798FF0223637727
:1040D4002368CA225A6253225A622046FFF7D2FF4B
:1040E4002368054628B1FF225A6204236377012519
:1040F4002EE09A68206922F4E00222F040029A60DD
:10410400626899680243606902430A439A60E268FC
:104114001A611A69A16842EA01421A61DA6822F056
:104124008002DA609B689B0605D42046FFF792FF65
:1041340008B12368D7E72368A1691A6C22F48022A6
:104144001A641A6C0A431A64FF225A6201236377C1
:10415400284638BD0023092803D840EA0310C0B21A
:1041640070470A380133C0B2F5E72DE9F041037F07
:10417400012B05460E464FF002072ED0012303778C
:104184004777016874783078B7784ABB8A6812F048
:10419400400208BFF270FFF7DDFF80462046FFF7BC
:1041A400D9FF04463846FFF7D5FFF37840EA0342C7
:1041B40042EA084343EA0424CA234B6253234B6272
:1041C4002846FFF75FFF2A680746B0B1FF23536212
:1041D40004236B7700232B7701273846BDE8F08151
:1041E4008A6812F0400208BFF2702402F37844EAAD
:1041F40000443C4344EA0344DEE704F07F3424F003
:10420400FE441460936823F480239360D6E903305A
:10421400916803430B439360D36823F08003D36016
:1042240093689B060AD42846FFF714FF30B12B6825
:10423400FF225A6204236B772F77CDE72B68FF2286
:104244005A6201236B7700232B77C6E7F8B5037F07
:10425400012B04464FF0020631D001230377467741
:104264000D78C8784B788F786D03002A48D1DA0628
:1042740003D523F010030A334B70FFF76BFF064698
:104284004878FFF767FF01463846FFF763FF40EAC7
:10429400050242EA064343EA01252368CA225A6218
:1042A40053225A622046FFF7EDFE2268064640B1CB
:1042B400FF235362042363770023237701263046C8
:1042C400F8BD25F07F4525F0C0055560D36823F07F
:1042D4008003D36093689B060AD42046FFF7BAFE96
:1042E40030B12368FF225A62042363772677E5E717
:1042F4002368FF225A620123637700232377DEE7D2
:1043040045EA00453D4345EA0325C6E7030903EBB7
:10431400830300F00F0000EB4300C0B27047036852
:10432400986A486070B518691C68C0F30E00C4F33D
:104334000645C4F30626886005F04003C4F305402F
:1043440004F07F0408704E708C70CB7052B9FFF784
:10435400DDFF08703046FFF7D9FF48702046FFF7AD
:10436400D5FF8870002070BD38B503685B68C3F35F
:104374000740C3F3042503F03F04C3F34233C8707A
:104384004D708C700B7052B9FFF7C0FFC87028468F
:10439400FFF7BCFF48702046FFF7B8FF8870002085
:1043A40038BD0068B2F5807F15BF4FF400724A62D1
:1043B4004A62C26918BF026AF8B50CBF446C846CC7
:1043C400C2F30745C4F30E0405F04005C2F30540EB
:1043D400C2F3062702F07F06CD704C6002F08045E0
:1043E400C2F3056402F0803208704F708E7081F859
:1043F4002040CD614A617BB9FFF788FF08703846D9
:10440400FFF784FF48703046FFF780FF887020462E
:10441400FFF77CFF81F820000020F8BD037F012B0B
:104424004FF002030FD043770368CA225A62532223
:104434005A629A6842F020029A60FF225A6201236B
:10444400437700230377184670477047022380F8A8
:104454003D3003689A6802F00702062A1EBF1A68F4
:1044640042F001021A60012380F83D3000207047B9
:104474007047704703681A69910710B504460ED552
:10448400DA6892070BD56FF002021A6101220277F3
:104494009B699B0777D002F0D5FB00232377236821
:1044A4001A69500710D5DA6851070DD56FF0040268
:1044B4001A61022222779B6913F4407F204668D058
:1044C40002F0C0FB0023237723681A6912070FD573
:1044D400DA6810070CD56FF008021A6104222277FB
:1044E400DB69990720465AD002F0ACFB00232377FE
:1044F40023681A69D20610D5DA68D0060DD56FF094
:1045040010021A6108222277DB6913F4407F2046E7
:104514004BD002F097FB0023237723681A69D10755
:1045240008D5DA68D20705D56FF001021A61204672
:1045340002F05CFB23681A69100608D5DA681106D4
:1045440005D56FF080021A61204600F002F9236855
:104554001A69520608D5DA68500605D56FF040028C
:104564001A612046FFF785FF23681A69910622D550
:10457400DA6892061FD56FF0200220461A61BDE862
:10458400104000F0E5B802F05BFB2046FFF770FF37
:1045940083E702F055FB2046FFF76AFF92E702F03B
:1045A4004FFB2046FFF764FFA0E702F049FB2046DB
:1045B400FFF75EFFAFE710BD244A036890420ED0B8
:1045C400B0F1804F0BD0A2F57C42904207D002F5A7
:1045D4008062904203D002F58062904215D14A680D
:1045E40023F070031343194A904219D0B0F1804F5D
:1045F40016D0A2F57C42904212D002F5806290421D
:104604000ED002F5806290420AD0114A904207D03F
:1046140002F58062904203D002F58062904203D199
:10462400CA6823F4407313434A6923F08003134395
:1046340003608B68C3620B688362044B984204BFB7
:104644000B69036301234361704700BF000001400D
:104654000040014010B50446A0B190F83D3003F08D
:10466400FF021BB980F83C2001F0E0F80223206827
:1046740084F83D30211DFFF79FFF012384F83D306E
:10468400002010BD0120FCE7036A01F01F0110B5F2
:1046940001248C4023EA04030362036A8A401A4318
:1046A400026210BD10B5044601220068FFF7ECFF5A
:1046B4002368094A934202BF5A6C42F400425A6486
:1046C4009A6802F00702062A1EBF1A6842F0010225
:1046D4001A60002010BD00BF00000140FFF7E2BFD8
:1046E40010B5044601220068FFF7CEFF23689A68DC
:1046F40002F00702062A1EBF1A6842F001021A607D
:10470400002010BD036A01F01F0110B504248C4081
:1047140023EA04030362036A8A401A43026210BD57
:1047240010B5044604220068FFF7ECFF23685A6CB6
:1047340042F400425A649A6802F00702062A1EBF35
:104744001A6842F001021A60002010BDFFF7E8BFAA
:10475400704770470368DA6822F49072DA605A6925
:1047640022F001025A61202380F83A307047000099
:1047740038B50368C1681A69044622F440520A43F2
:104784001A612569A268D968C0692A43656921F458
:1047940016412A4321F00C0102430A43DA605A69A4
:1047A400A16922F440720A43B0F5004F5A61254AC8
:1047B40028D1934203D002F5806293421FD1FFF7C0
:1047C40033FB6268002392184FF019015B41A0FB90
:1047D4000101FBF7E5FC6421B0FBF1F501FB1503D6
:1047E400DB003233B3FBF1F303F007025B00216813
:1047F40002EB051203F4F87313448B6038BDFFF722
:1048040003FBDEE7934202D00F4A934217D1FFF72E
:104814000BFB636819219A00A0FB01019B0FFBF7B6
:10482400BFFC6422B0FBF2F102FB110324681B01FC
:104834003233B3FBF2F303EB0113A360DEE7FFF7BC
:10484400E3FAE6E70010014000140140704710B598
:10485400044640B390F8393003F0FF021BB980F8E6
:104864003820FFF7F3FF2268242384F83930D36813
:1048740023F40053D3602046FFF77AFF23681A69B4
:1048840022F490421A615A6922F02A025A61DA68C3
:1048940042F40052DA6000202023E06384F83930C7
:1048A40084F83A3010BD0120FCE710B5044660B32B
:1048B40090F8393003F0FF021BB980F83820FFF775
:1048C400C5FF2268242384F83930D36823F40053C5
:1048D400D3602046FFF74CFF23681A6922F4904204
:1048E4001A615A6922F022025A615A6942F0080296
:1048F4005A61DA6842F40052DA6000202023E0634F
:1049040084F8393084F83A3010BD0120FCE790F87F
:104914003930202B18D1A9B1A2B190F83830012B2D
:1049240012D0C28401628284016800232122C363FD
:1049340080F8383080F83920CA6842F08002CA60B2
:1049440018467047012070470220704790F83A30AB
:10495400202B20D1E9B1E2B190F83830012B1AD0E4
:10496400C285828500232222C36380F83A2002682C
:1049740080F838308162D16841F48071D160516926
:1049840041F001015161D16841F02001D160184624
:104994007047012070470220704710B590F83A30F4
:1049A400222B33D181680469836A0268B1F5805F80
:1049B40023D15268ECB9C2F3080223F8022B8362B4
:1049C400C48D013CA4B2C4858CB90368DA6822F0B2
:1049D4002002DA60DA6822F48072DA605A6922F01E
:1049E40001025A61202380F83A3001F0D3F8002004
:1049F4000DE0D2B223F8012BE1E7591C5268816221
:104A04000CB91A70DCE702F07F02FAE7022010BD4D
:104A140003681A68D96870B516075D69044607D13A
:104A240096065CD58D065AD5BDE87040FFF7B5BF34
:104A340005F0010001F49075054350D0D60705D563
:104A4400CD0542BFE36B43F00103E363530704D591
:104A540018B1E36B43F00203E363960704D518B17E
:104A6400E36B43F00403E363150707D501F0200368
:104A740003431EBFE36B43F00803E363E36B4BB3F1
:104A8400900604D5890602D52046FFF786FF2368E1
:104A94005B69E56B03F0400305F008051D43204600
:104AA40019D0FFF757FE23685A6952060FD55A6981
:104AB400606B22F040025A6148B1264B0365FDF752
:104AC400F2FE38B1606BBDE87040036D18472046B4
:104AD40001F076F870BD01F073F8E563FAE71606A5
:104AE40028D50D0626D594F83920212AF2D1A168BB
:104AF400226AB1F5805F18D11188C1F308015960A9
:104B0400216981B902322262E28C013A92B2E284D2
:104B1400002ADFD1DA6822F08002DA60DA6842F033
:104B24004002DA60D6E70132EDE7511C21621278C7
:104B34005A60E9E75006CDD54A06CBD5DA6822F0AB
:104B44004002DA60202384F83930204601F025F849
:104B5400C0E700BF5D4B000808B5806B0023C38528
:104B6400C38401F02DF808BD90F83830012B11D022
:104B74000268242380F83930D36823F00C0343F00F
:104B84000803D360202380F83930002380F83830BC
:104B9400184670470220704790F83830012B11D026
:104BA4000268242380F83930D36823F00C0343F0DF
:104BB4000403D360202380F83930002380F8383090
:104BC400184670470220704790F8392090F83A0050
:104BD4001043704786B00023052853D8DFE800F05F
:104BE40003111E2B38450093274B28481A6B42F0BB
:104BF40001021A631B6B03F001030093009B06B0D0
:104C040070470193204B22481A6B42F002021A6348
:104C14001B6B03F002030193019BF0E702931A4B11
:104C24001C481A6B42F004021A631B6B03F0040362
:104C34000293029BE3E70393134B17481A6B42F06A
:104C440008021A631B6B03F008030393039BD6E764
:104C540004930D4B11481A6B42F010021A631B6B3C
:104C640003F010030493049BC9E70593064B0C4817
:104C74001A6B42F080021A631B6B03F080030593E6
:104C8400059BBCE70020BAE7003802400000024060
:104C94000004024000080240000C024000100240E0
:104CA400001C024037B50D4D2B68FDF743FB6C68C3
:104CB400AB680134E31A01932B68DB0304D5FDF7D9
:104CC40039FBAB68E31A0193019B4FF47A725343A7
:104CD400B3FBF4F302FB003003B030BD10E000E09E
:104CE400FDF728BB704708B5FDF718FBFDF7D7FDA6
:104CF400FFF7F8FF08BD000010B58EB0302204465F
:104D0400002102A802F078F9244B1A6C12F08052A8
:104D140009D101921A6C42F080521A641B6C03F0A0
:104D240080530193019BFEF7F1FD032C0BD8DFE8C0
:104D340004F00216212A194B5B6F9C0703D4082345
:104D4400029301230793029B3BB102A8FEF7E4FD03
:104D540018B113489E2100F095FB0EB010BD0F4B07
:104D64001B689907EFD40223029301221023CDE993
:104D74000523E8E7094B1B6F9C07E4D40423029343
:104D840001230493DFE7054B1B6899035EBF0122EF
:104D94004FF48033CDE90223D5E700BF0038024049
:104DA40008A600080B4BDA68D2015EBFDA6842F04D
:104DB4008072DA60084B00225A601A6842F00102DD
:104DC4001A6000BF00BF00BF5868B0FA80F0400905
:104DD400704700BFF0ED00E0001000E008B5FFF7F9
:104DE400E1FFFDF781FABDE8084001F093B930B561
:104DF400436891FAA1F4B4FA84F50124AC4023EA9F
:104E0400040391FAA1F1B1FA81F18A40134343609A
:104E140030BD30B5C46891FAA1F3B3FA83F3032526
:104E24005B0005FA03F324EA030391FAA1F1B1FA52
:104E340081F149008A401343C36030BD431C04D050
:104E44000C3131F90C3C5A1C01D1002070478342CB
:104E540001F10C01F5D101207047000000F00F02B0
:104E6400484B2DE9F041C0F303141FFA80F80130D8
:104E740053F822500E4601F0070703D14248482157
:104E840000F000FB2046FFF7A5FE8368044695FA70
:104E9400A5F2B2FA82F20321520001FA02F223EAE5
:104EA400020195FAA5F3B3FA83F35A00032393405E
:104EB4000B438360032F35D8DFE807F01D1D021D67
:104EC40018F0080FC6F3062217D0406A2B0A93FA8B
:104ED400A3F1B1FA81F14FF00F0C89000CFA01F142
:104EE40020EA010193FAA3F3B3FA83F39B0002FAD5
:104EF40003F30B4363623B4619E0036A95FAA5F199
:104F0400B1FA81F10F20890000FA01F123EA0101CD
:104F140095FAA5F3B3FA83F39B0002FA03F30B4368
:104F24002362E8E718488D2100F0ACFA00232168D9
:104F340095FAA5F2B2FA82F20320520000FA02F2C4
:104F440021EA020195FAA5F2B2FA82F252009340E4
:104F5400013F0B43012F236007D816F0080218BF46
:104F6400012229462046FFF742FFC6F30112012A17
:104F740002D0022A18BF002229462046BDE8F0418B
:104F8400FFF747BFE8A6000877A60008431C06D130
:104F94007047834202D18968FFF760BF0C31B1F9D1
:104FA40000305A1CF5D10248B92100F06BBA00BF99
:104FB40077A60008B1F900305A1C01D100207047CF
:104FC400834201D1486870470C31F3E7431C01D098
:104FD400FFF7F0BF002070474B6813B94FF0FF3064
:104FE4007047834202D1B1F9000070470C31F3E7F6
:104FF40008B1FFF7F1BF4FF0FF307047B1F900304F
:105004005A1C01D118467047834201D18868704701
:105014000C31F3E7431C01D0FFF7F0BF704788421F
:1050240004D018B100290CBF01460021084670477E
:10503400044B10B1821E012A01D818707047002257
:105044001A707047D806002070B5284B93F90020D9
:105054000446501C0E4604D0254BB3F90030591CAD
:105064003DD1002C3AD0002E38D0224B1B78022B95
:1050740021D01BB3032B17D11F4B1A781F4BB3FB43
:10508400F2F37F22227094F90020002A19DADB0956
:105094005D1E7F22B5F5004F22701ED318484FF4D1
:1050A400937100F0EFF918E015484FF4887100F09F
:1050B400E9F90023E5E74FF40043E2E74FF4FA434C
:1050C400DFE7511CB3FBF1F569438B4201D0013A90
:1050D400D8E7013DB5F5004FD9D2358070BD002C1D
:1050E400FCD0002EFAD022703380F7E72400002091
:1050F40026000020D8060020AC06002000127A000A
:1051040028A70008F0B54F4B87B005460C46187029
:1051140042B1FEF7FBFBFEF7F9FB4B4B01221A6091
:1051240000221A60022C47D12046FFF7E5FD4FF418
:10513400807301A801940493FEF7A4FE18B14348B8
:10514400792100F09FF9424B02221A70414B424CE4
:10515400012200261A60B542404B236004F10C0181
:105164000CBF4023334604F1080063602661FFF757
:105174006BFF2046C4E90566FEF79EFF2046FFF755
:105184004DF9324602212920FDF70EFB2920FDF7B7
:105194003DFB334B1A6C12F0805209D101921A6C08
:1051A40042F080521A641B6C03F080530193019BFC
:1051B400FEF7ACFB07B0F0BD032C29D12046FFF766
:1051C4009BFD284A284E294F022301931370002186
:1051D400202BD8B2B6FBF3F402D159B1107009E018
:1051E400BC4203F1010C10D801B110701B0443F44C
:1051F4004073049301A8FEF745FE18B11348B42187
:1052040000F040F9124B03229FE763460121DFE7D8
:1052140094B92046FFF770FD0223019301A84FF4CF
:1052240000730493FEF72EFE18B10848BE2100F067
:1052340029F9074B002288E70448C22100F022F92B
:1052440084E700BFD9060020400E474228A7000883
:10525400D80600203C0E4742B40600200028004037
:1052640000380240AC06002000127A0040420F00D1
:1052740030B5174D2D7887B0012D9DF8284022D0E8
:10528400451E0B2D1DD83B291BD83B2A19D8012CB0
:105294008DF806204FF000028DF8051014BF11465A
:1052A40040218DF804008DF807100A4801A9CDE9C2
:1052B4000232CDE90422FEF758FF074B43F2F222F3
:1052C4005A6007B030BD17284FF00004DBD9D7E788
:1052D400D9060020B4060020502800402DE9F041F2
:1052E40086B00E46DDF8308015461C460746E8B108
:1052F400E1B1DAB10F48002201A9FFF710F89DF8D7
:1053040004303B709DF8053033709DF806302B70E7
:10531400B8F1000F07D09DF80730402B0CBF0123D4
:10532400002388F800300CB1029B236006B0BDE86E
:10533400F08100BFB4060020632813B519D84C1EB1
:105344000B2C16D8541E1E2C13D85C1E062C10D8F9
:105354008DF807008DF805108DF8062006488DF8A5
:105364000430002201A9FEF771FF044B43F2F2223C
:105374005A6002B010BD00BFB4060020502800409F
:10538400F7B50E4615461C46074698B191B18AB149
:1053940083B10948002201A9FEF7E6FF9DF8073012
:1053A4003B709DF8053033709DF806302B709DF8E6
:1053B4000430237003B0F0BDB40600202DE9F0479B
:1053C4008AB0DDE912A9149C0546174698460E4694
:1053D400002940D0002A3ED0002B3CD000231F4897
:1053E4004FF480726946FEF7DCFF9DF8023088F8BE
:1053F40000309DF801303B709DF80030337015B1DA
:105404009DF820302B70B9F1000F07D09DF80330C0
:10541400402B0CBF0123002389F80030BAF1000FA0
:1054240002D0019BCAF80030ACB1059A82F0800327
:10543400C3F3C013110458BF43F0020323701302D3
:105444005EBF237843F004032370002AA2BF2378AD
:1054540043F0080323700AB0BDE8F087B4060020C7
:10546400034B1B6813B1034A10681847704700BF09
:10547400B0060020D40600200148FEF7C1BD00BFDD
:10548400B4060020FEE7000008B5034903484FF4C2
:10549400804201F0A3FD08BD00C00308E00600201F
:1054A40010B50446FFF7F0FF014B185D10BD00BFB7
:1054B400E006002070B5002386B0CDE90033022356
:1054C400052105930123CDE90313FDF781FA69460C
:1054D40001A8FDF76DFB68B9084D094C094E55F854
:1054E400042B002321460220FDF7B8FA10B9043436
:1054F400B442F4D1FDF77EFA06B070BDE006002098
:1055040000C0030800000408014B1954FFF7D2BF80
:10551400E00600200F49D1F8883043F47003C1F845
:1055240088300D4B1A68002042F001021A6098601E
:105534001A6822F0847222F480321A60074A5A6090
:105544001A6822F480221A60D8604FF000638B60DE
:10555400704700BF00ED00E0003802401030002426
:105564000438704703683F4A934288B01BD1002235
:1055740000923D4A516C41F001015164526C02F0B9
:1055840001020092009A394A93423FD100230593C5
:10559400354B5A6C42F480325A645B6C03F48033AA
:1055A4000593059B17E0B3F1804F16D0304A934220
:1055B40020D0304A934239D02F4A9342E3D100237A
:1055C4000493294B1A6C42F008021A641B6C03F012
:1055D40008030493049B08B0704700220192224AF6
:1055E400116C41F001011164126C02F0010201928C
:1055F400019AC8E7002202921B4A116C41F0020191
:105604001164126C02F002020292029A1B4A934243
:1056140018D100230693144B5A6C42F400325A6496
:105624005B6C03F400330693069BD4E700220392D9
:105634000D4A116C41F004011164126C02F0040271
:105644000392039A0E4A9342C5D100230793064B53
:105654005A6C42F480225A645B6C03F480230793EF
:10566400079BB8E7000001400038024000400140B9
:105674000004004000080040000C004000440140C9
:10568400004801400368224A93420DD121494A6CE3
:1056940022F001024A64204A934222D11D4A536CEB
:1056A40023F4803353647047B3F1804F0ED01B4A08
:1056B400934211D01A4A93421BD01A4A9342EAD118
:1056C400144A136C23F008031364704711490A6CDD
:1056D40022F001020A64DEE70E490A6C22F002029B
:1056E4000A64114A934209D10A4A536C23F40033E1
:1056F400D8E708490A6C22F004020A640B4A934270
:1057040000D07047034A536C23F48023CAE700BFD8
:105714000000014000380240004001400004004005
:1057240000080040000C00400044014000480140D3
:1057340008B5431C014611D0184B984224D010D808
:10574400A3F50063984221D003F5806398421FD0EB
:10575400B0F1804F1ED01248FFF794FE6FF00D0099
:1057640008BD104B984217D009D8A3F58843984236
:1057740012D003F580439842EDD11820F0E70A4B8C
:105784009842E8D11A20EBE73220E9E71D20E7E749
:105794001E20E5E71C20E3E71920E1E7000C0040A8
:1057A400ADA70008004401400048014008B5431C6F
:1057B400014612D0194B984224D016D8A3F5784349
:1057C400984221D00CD8B0F1804F1FD0A3F580634C
:1057D40098421DD01248FFF755FE6FF00D0008BD2A
:1057E400104B9842F6D13220F9E70F4B984211D072
:1057F40003F5806398420FD0A3F500639842E9D182
:105804001820ECE71B20EAE71E20E8E71C20E6E767
:105814001D20E4E71920E2E71A20E0E70000014038
:10582400ADA70008000C00400044014038B5044610
:10583400FFF798FE0068FFF77BFFD4E91012FCF72E
:10584400B3FF2068FFF774FFFCF7E0FF2068FFF761
:10585400ADFF05462068FFF76BFF85420DD0206839
:10586400FFF7A4FFD4E91012FCF79EFF2068FFF7AE
:105874009DFFBDE83840FCF7C9BF38BD08B5431CDF
:10588400014610D0114B98421BD011D8A3F5784390
:10589400984218D009D820F48063B3F1804F12D015
:1058A4000B48FFF7EFFD002008BD0A4B9842F6E7CE
:1058B400094B984205D020F48062A3F500639A4214
:1058C400EED10220F0E70120EEE700BF0000014026
:1058D400C5A70008000C0040004801402DE9FF471F
:1058E40004468946B0F94C004C49DDF830A0904696
:1058F4001F46FFF76BFB4A490546B4F94E00FFF714
:1059040065FB0646002D00F08580B4F94E30013366
:1059140001D000287ED031462846FFF780FB206066
:10592400002877D03F4B98423AD103F594335A6A12
:1059340042F010025A625A6A22F010025A6200229D
:1059440001925A6C42F010025A645B6C03F010032B
:105954000193019B2523A4F850303049B4F94C003D
:10596400FFF714FB26B12E49B4F94E00FFF70EFBE6
:1059740094F851202C4B6761201D43F822002368C2
:105984000C22C4E901390023C4E9038AC4E90623CB
:105994002362002E39D104B0BDE8F047FEF785BF7D
:1059A400224B984217D103F5FA331A6A42F40032B3
:1059B4001A621A6A22F400321A62002202921A6CE3
:1059C40042F400321A641B6C03F400330293029B0A
:1059D4004FF49373BFE7164B9842BED1154D6B6AD3
:1059E40043F020036B626B6A23F020036B62002395
:1059F40003936B6C43F020036B646B6C03F0200324
:105A04000393039B40F24723A5E704B0BDE8F047A6
:105A1400FEF71DBF04B0BDE8F08700BFDCA9000895
:105A2400A0A9000800100140E04600200044004006
:105A3400001401400038024008B1FFF74FBF70471F
:105A440008B5074B90F8512053F82200FFF7BCF833
:105A540000F02200A0F122035842584108BD00BFC3
:105A6400E046002008B5074B90F8512053F8220077
:105A7400FFF7AAF800F02100A0F121035842584191
:105A840008BD00BFE046002070B50E46054610B9BB
:105A94004FF0FF3070BDFFF7D3FF04460028F7D165
:105AA4002946012211F8523F337095F85100034BF7
:105AB40053F82000FEF74AFF2046EBE7E0460020BB
:105AC40070B50E460446F0B1FFF7BAFF0546D0B9EB
